WAMAS     ODOO      00000120231220091116KRETKQ050000130377              HOST                     0001040         202304270000002023042708000020230427180000                                                                             
WAMAS     ODOO      00000220231220091116KRETPQ050000130377              HOST 0000200001151       0000020001151                00000DISPONIBLE          000001536000000000000000     BOUT                     19700101                    
WAMAS     ODOO      00000320231220091116KRETPQ050000130377              HOST 0000300001156       0000030001156                00000DISPONIBLE          000005184000000000000000     PET                      19700101                    
WAMAS     ODOO      00000420231220091116KRETPQ050000130377              HOST 0000400001160       0000040001160                00000DISPONIBLE          000003840000000000000000     BOUT                     19700101                    
WAMAS     ODOO      00000520231220091116KRETPQ050000130377              HOST 0000500001162       0000050001162                00000DISPONIBLE          000003072000000000000000     PET                      19700101                    
WAMAS     ODOO      00000620231220091116KRETPQ050000130377              HOST 0000600001176       0000060001176                00000DISPONIBLE          000003024000000000000000     PET                      19700101                    